:1002A4003A748DDCBC4CA2DB3DA353F8BEA5BC0262
:1002B4003F708312C0054FDF406C0831C0ACBC6A8C
:1002C40040D676C9C0E6041940D676C9C0ACBC6A2B
:1002D400406C0831C0054FDF3F708312BEA5BC02DD
:1002E4003DA353F8BC4CA2DB3A7634A53F80000012
:1002F400C16851EC42C7A3D7C3D7F33344A4A000C9
:10030400C53C000045A69000C5EA000046042C0048
:10031400C5F1D00045B39800C558000044D0E000B2
:10032400C4200CCD433E3333C229147B40D3C6A82A
:10033400BF26B50B3CF861A63F7E6E44C09F04E621
:10034400411F04E0C11F04E0409F04D5BF7E6E44FA
:100354003F800000C09F9B28411F36C3C11ED2A806
:10036400409E6EE1BF7CDE7F3F78DED3C11AF56F1D
:10037400422DD16BC2E745C9434A1C15C3726E2492
:10038400434A1C15C2E745C9422DD168C11AF56F0D
:100394003F78DF1F3F800000C11E7F2E4230C88897
:1003A400C2E9E426434B3EEFC3726B5E4348F67DDD
:1003B400C2E4AA8C422AE474C1177E9B3F71F0C345
:03074B00010B138C
:1003C4007858120272C000C001C002C0039002A497
:1003D400120262780C120272120106D003D002D00B
:1003E40001D000120015785812027F750801785860
:1003F400120272C000C001C002C003AF08EF3395FF
:10040400E0FEEF7802C333CE33CED8F924A4F582CC
:1004140074023EF583120262E50825E025E0240C0F
:10042400F8120272120106C004C005C006C007AF6C
:1004340008EF3395E0FEEF7802C333CE33CED8F91C
:1004440024F0F58274023EF583120262E50825E089
:1004540025E02458F8120272120106D003D002D00B
:1004640001D000120015D003D002D001D000120038
:1004740015785812027F0508E50864136003020327
:01048400F285
:010485002254
:100486007858120272C000C001C002C00390033C3B
:10049600120262780C120272120106D003D002D048
:1004A60001D000120015785812027F75090178589C
:1004B600120272C000C001C002C003AF09EF33953B
:1004C600E0FEEF7802C333CE33CED8F9243CF58272
:1004D60074033EF583120262E50925E025E0240C4B
:1004E600F8120272120106C004C005C006C007AFAA
:1004F60009EF3395E0FEEF7802C333CE33CED8F959
:100506002454F58274033EF583120262E50925E060
:1005160025E02458F8120272120106D003D002D048
:1005260001D000120015D003D002D001D000120075
:1005360015785812027F0509E5096406600302046E
:01054600B400
:010547002291
:100548007858120272C000C001C002C00390036C48
:10055800120262780C120272120106D003D002D085
:1005680001D000120015785812027F750A017858D8
:10057800120272C000C001C002C003AF0AEF339577
:10058800E0FEEF7802C333CE33CED8F9246CF5827F
:1005980074033EF583120262E50A25E025E0240C87
:1005A800F8120272120106C004C005C006C007AFE7
:1005B8000AEF3395E0FEEF7802C333CE33CED8F995
:1005C8002498F58274033EF583120262E50A25E059
:1005D80025E02458F8120272120106D003D002D086
:1005E80001D000120015D003D002D001D0001200B3
:1005F80015785812027F050AE50A640B60030205A4
:01060800767B
:0106090022CE
:10069600EF14FBD3EB64809480402FEB25E025E03C
:1006A6002454F8120256EB25E025E02458F81202ED
:1006B6007FEB25E025E02408F8120256EB25E0251D
:1006C600E0240CF812027F1B80C9785812028B00B6
:0306D60000000021
:0106D90022FE
:1006DA00E4FBEB25E025E02458F812028B00000029
:1006EA0000EB25E025E0240CF812028B0000000044
:0406FA000BBB13DE45
:0106FE0022D9
:0F0733001206DA120711120723C2A0D2AF80FEFE
:1006FF00E4FDFCD3ED9FEC9E50070DBD00010C8077
:01070F00F2F7
:0107100022C6
:05000300C2A0D2A02202
:10071100C2AF7580FF75B0FF75A0FC75FFDE75FF78
:02072100AD2207
:10072300758901758CFC758AFFD28CD2A9D2AF2250
:03000B00020742A7
:09074200C28D1200038580903283
:10000E00020241E86480F8E933E83360110460F0DD
:10001E00ED33EC337009E8FCE9FDEAFEEBFF220458
:10002E0060DED3EB9FEA9EE99DE8C2E78CF0C2F753
:10003E0095F0400CE8CCF8E9CDF9EACEFAEBCFFB1F
:10004E0012020C85D0F05804700320D5B3E804706A
:10005E00075002B2D502024B92D5EC0460F7E4CC05
:10006E00C0E0C398F8603B94186008400DD0E0FBE8
:10007E00020223E4FBFAC9FC8028E830E406E4C956
:10008E00FBE4CAFCE830E305E4C9CACBFCE854073C
:10009E006010F8C3E913F9EA13FAEB13FBEC13FC47
:1000AE00D8F130F52FC3E49CFCEF9BFFEE9AFEEDEA
:1000BE0099FDD0E0FBEF4E4D4C701222DB03020295
:1000CE0048EC2CFCEF33FFEE33FEED33FDED30E765
:1000DE00EB020223EF2BFFEE3AFEED39FDD0E0FBF3
:1000EE0050130BBB000302024BED13FDEE13FEEF9C
:0800FE0013FFEC13FC020223C6
:10010600EC4D6011E8497017ED33EC3304600DE4F3
:10011600FCFFFEFD22E933E8330470F802024112C7
:10012600020C58046009E4CC2481500628500902C8
:10013600024B284003020248C0E0EB4A7044B980F3
:1001460006D0E0FB020237EF4E701CBD8008EBFFC5
:10015600EAFEE9FD80EBE98DF0A4FEE5F00201EF91
:10016600E9CDF9EAFEEBFFEF89F0A4FCE5F0CE89D4
:10017600F0A42EFFE435F0CD89F0A42DFEE435F091
:100186008067EF4E7005BD80D780C3EF8BF0A4ACBF
:10019600F0EE8BF0A42CFCE435F0F8EF8AF0A42CFA
:1001A600E5F038FCE433CB8DF0A42CFCE5F03BF80D
:1001B600EE8AF0A42CFCE5F038F8E433CF89F0A4FD
:1001C6002CFCE5F038CF3400CE89F0A42FFFE5F003
:1001D6003EFEE433C98DF0A42EFEE5F039CD8AF05B
:1001E600A42FFFE5F03EFEE43DFD33D0E0FB5007D3
:1001F6000BBB000F02024BEC2CFCEF33FFEE33FE81
:06020600ED33FD020223AE
:10020C00E9D2E7C933E833F892D5EDD2E7CD33EC38
:07021C0033FC5002B2D522B1
:10022300EC30E7100FBF000C0EBE00080DBD00043C
:100233000BEB6014A2D5EB13FCED92E7FD2274FFE8
:10024300FCFDFEFF22E480F8A2D574FF13FC7D8041
:03025300E480EF55
:0300000002060AEB
:0C060A00787FE4F6D8FD7581A30206514C
:0C025600E6FC08E6FD08E6FE08E6FF22D4
:10026200E493FC740193FD740293FE740393FF22E2
:0D027200E6FB08E6F908E6FA08E6CBF822FC
:0C027F00ECF608EDF608EEF608EFF622AB
:10028B00D083D082E493F608740193F6087402933A
:09029B00F608740393F674047371
:10061600020733E493A3F8E493A34003F68001F2C0
:1006260008DFF48029E493A3F85407240CC8C333E5
:10063600C4540F4420C8834004F456800146F6DFB4
:10064600E4800B010204081020408090074BE47EF2
:10065600019360BCA3FF543F30E509541FFEE493A9
:10066600A360010ECF54C025E060A840B8E493A370
:10067600FAE493A3F8E493A3C8C582C8CAC583CA9B
:10068600F0A3C8C582C8CAC583CADFE9DEE780BE53
:01074E0000AA
:00000001FF
